{
  "contractName": "ListenToEvent",
  "abi": [
    {
      "anonymous": false,
      "inputs": [
        {
          "indexed": true,
          "name": "id",
          "type": "uint256"
        },
        {
          "indexed": true,
          "name": "date",
          "type": "uint256"
        },
        {
          "indexed": false,
          "name": "value",
          "type": "string"
        }
      ],
      "name": "MyEvent",
      "type": "event"
    },
    {
      "constant": false,
      "inputs": [
        {
          "name": "value",
          "type": "string"
        }
      ],
      "name": "emitEvent",
      "outputs": [],
      "payable": false,
      "stateMutability": "nonpayable",
      "type": "function"
    }
  ],
  "bytecode": "0x608060405234801561001057600080fd5b5061016e806100206000396000f3fe60806040526004361061003b576000357c010000000000000000000000000000000000000000000000000000000090048063982296a814610040575b600080fd5b34801561004c57600080fd5b506100c46004803603602081101561006357600080fd5b810190808035906020019064010000000081111561008057600080fd5b82018360208201111561009257600080fd5b803590602001918460018302840111640100000000831117156100b457600080fd5b90919293919293905050506100c6565b005b426000547fb471d59b9e8fe78ab0670c11fe84df6ab431139b43533ab6764e0b15b8d6c39a848460405180806020018281038252848482818152602001925080828437600081840152601f19601f820116905080830192505050935050505060405180910390a36000808154809291906001019190505550505056fea165627a7a72305820e1d588bdebb6076dd723b4c0bf04ed6ea7c1cceb22c725721e669348b3db8d670029",
  "source": "// SPDX-License-Identifier: MIT\npragma solidity >=0.4.22 <0.9.0;\n\ncontract ListenToEvent {\n    event MyEvent(uint256 indexed id, uint256 indexed date, string value);\n    uint256 nextId;\n\n    function emitEvent(string calldata value) external {\n        emit MyEvent(nextId, block.timestamp, value);\n        nextId++;\n    }\n\n    // function fallback() external payable {\n    //     functionCalled = \"fallback\";\n    // }\n\n    // receive() external payable {\n    //     functionCalled = \"fallback\";\n    // }\n}\n",
  "sourcePath": "D:\\Blockchain\\Ethereum\\LearningWeb3\\contracts\\ListenToEvent.sol",
  "compiler": {
    "name": "solc",
    "version": "0.5.1+commit.c8a2cb62.Emscripten.clang"
  },
  "schemaVersion": "3.4.3",
  "updatedAt": "2021-11-11T10:31:15.534Z",
  "networkType": "ethereum",
  "devdoc": {
    "methods": {}
  },
  "userdoc": {
    "methods": {}
  }
}