{
  "contractName": "ListenToEvent",
  "abi": [
    {
      "anonymous": false,
      "inputs": [
        {
          "indexed": true,
          "name": "id",
          "type": "uint256"
        },
        {
          "indexed": true,
          "name": "date",
          "type": "uint256"
        },
        {
          "indexed": true,
          "name": "value",
          "type": "string"
        }
      ],
      "name": "MyEvent",
      "type": "event"
    },
    {
      "constant": false,
      "inputs": [
        {
          "name": "value",
          "type": "string"
        }
      ],
      "name": "emitEvent",
      "outputs": [],
      "payable": false,
      "stateMutability": "nonpayable",
      "type": "function"
    }
  ],
  "bytecode": "0x608060405234801561001057600080fd5b50610156806100206000396000f3fe60806040526004361061003b576000357c010000000000000000000000000000000000000000000000000000000090048063982296a814610040575b600080fd5b34801561004c57600080fd5b506100c46004803603602081101561006357600080fd5b810190808035906020019064010000000081111561008057600080fd5b82018360208201111561009257600080fd5b803590602001918460018302840111640100000000831117156100b457600080fd5b90919293919293905050506100c6565b005b81816040518083838082843780830192505050925050506040518091039020426000547fb471d59b9e8fe78ab0670c11fe84df6ab431139b43533ab6764e0b15b8d6c39a60405160405180910390a46000808154809291906001019190505550505056fea165627a7a72305820fd654c33f9091a87b3932f7523384a0826ead550207b61576744f2e7d9c283180029",
  "source": "// SPDX-License-Identifier: MIT\npragma solidity >=0.4.22 <0.9.0;\n\ncontract ListenToEvent {\n    event MyEvent(\n        uint256 indexed id,\n        uint256 indexed date,\n        string indexed value\n    );\n    uint256 nextId;\n\n    function emitEvent(string calldata value) external {\n        emit MyEvent(nextId, block.timestamp, value);\n        nextId++;\n    }\n\n    // function fallback() external payable {\n    //     functionCalled = \"fallback\";\n    // }\n\n    // receive() external payable {\n    //     functionCalled = \"fallback\";\n    // }\n}\n",
  "sourcePath": "D:\\Blockchain\\Ethereum\\LearningWeb3\\contracts\\ListenToEvent.sol",
  "compiler": {
    "name": "solc",
    "version": "0.5.1+commit.c8a2cb62.Emscripten.clang"
  },
  "schemaVersion": "3.4.3",
  "updatedAt": "2021-11-11T10:44:27.021Z",
  "networkType": "ethereum",
  "devdoc": {
    "methods": {}
  },
  "userdoc": {
    "methods": {}
  }
}