{
  "contractName": "SendEtherToSmartContract",
  "abi": [
    {
      "constant": true,
      "inputs": [],
      "name": "functionCalled",
      "outputs": [
        {
          "name": "",
          "type": "string"
        }
      ],
      "payable": false,
      "stateMutability": "view",
      "type": "function"
    },
    {
      "constant": false,
      "inputs": [],
      "name": "sendEther",
      "outputs": [],
      "payable": true,
      "stateMutability": "payable",
      "type": "function"
    }
  ],
  "bytecode": "0x608060405234801561001057600080fd5b506102a2806100206000396000f3fe608060405260043610610046576000357c0100000000000000000000000000000000000000000000000000000000900480630e29df221461004b578063cc81afc814610055575b600080fd5b6100536100e5565b005b34801561006157600080fd5b5061006a610133565b6040518080602001828103825283818151815260200191508051906020019080838360005b838110156100aa57808201518184015260208101905061008f565b50505050905090810190601f1680156100d75780820380516001836020036101000a031916815260200191505b509250505060405180910390f35b6040805190810160405280600981526020017f73656e6445746865720000000000000000000000000000000000000000000000815250600090805190602001906101309291906101d1565b50565b60008054600181600116156101000203166002900480601f0160208091040260200160405190810160405280929190818152602001828054600181600116156101000203166002900480156101c95780601f1061019e576101008083540402835291602001916101c9565b820191906000526020600020905b8154815290600101906020018083116101ac57829003601f168201915b505050505081565b828054600181600116156101000203166002900490600052602060002090601f016020900481019282601f1061021257805160ff1916838001178555610240565b82800160010185558215610240579182015b8281111561023f578251825591602001919060010190610224565b5b50905061024d9190610251565b5090565b61027391905b8082111561026f576000816000905550600101610257565b5090565b9056fea165627a7a72305820294665dd54a5288c4dd454677588f7bb97f9ad35ffa2022cb263be866bc68aab0029",
  "source": "// SPDX-License-Identifier: MIT\npragma solidity >=0.4.22 <0.9.0;\n\ncontract SendEtherToSmartContract {\n    string public functionCalled;\n\n    function sendEther() external payable {\n        functionCalled = \"sendEther\";\n    }\n\n    // function fallback() external payable {\n    //     functionCalled = \"fallback\";\n    // }\n\n    // receive() external payable {\n    //     functionCalled = \"fallback\";\n    // }\n}\n",
  "sourcePath": "D:\\Blockchain\\Ethereum\\LearningWeb3\\contracts\\SendEtherToSmartContract.sol",
  "compiler": {
    "name": "solc",
    "version": "0.5.1+commit.c8a2cb62.Emscripten.clang"
  },
  "schemaVersion": "3.4.3",
  "updatedAt": "2021-11-11T11:31:47.167Z",
  "networkType": "ethereum",
  "devdoc": {
    "methods": {}
  },
  "userdoc": {
    "methods": {}
  }
}